:0C00D4000A083F065B4F666D7D077F6FDA
:080017008F993099FDC2992276
:100003004389207598507587808F8D8F8BD2ACD2A2
:04001300AFD28E22B8
:0700E1007FFA12000380FE0C
:030023000200B226
:1000B200C0E0C0D075D000C000C00730980BAF9927
:1000C20074082FF8E6F580C298D007D000D0D0D0BF
:0200D200E0321A
:03000000020026D5
:0C002600787FE4F6D8FD75811102006DB2
:100032000200E1E493A3F8E493A34003F68001F203
:1000420008DFF48029E493A3F85407240CC8C333CF
:10005200C4540F4420C8834004F456800146F6DF9E
:10006200E4800B01020408102040809000D4E47E5A
:10007200019360BCA3FF543F30E509541FFEE49393
:10008200A360010ECF54C025E060A840B8E493A35A
:10009200FAE493A3F8E493A3C8C582C8CAC583CA85
:1000A200F0A3C8C582C8CAC583CADFE9DEE780BE3D
:0100E000001F
:00000001FF
