:070154000108000209000090
:080003008F993099FDC299228A
:10000E004389207598507587808F8D8F8BD2ACD297
:04001E00AFD28E22AD
:10013400438901758CFC758A18D2A9D2AFD28C225E
:100144007FFA12000E120134750B03750CE880FE61
:03002300020022B6
:0100220032AB
:03000B000200B23E
:0B00B200C0E0C0D075D000C000C00747
:1000BD00050AE50A70020509758CFC758A18C3E5F9
:1000CD000A950CE509950B40557F481200037F6595
:1000DD001200037F6C1200031200037F6F120003E6
:1000ED007F201200037F571200037F6F1200037FE2
:1000FD00721200037F6C1200037F641200037509F6
:10010D0000750A000508E508B40803750800AF0876
:0E011D007401A807088002C333D8FCF4F5A0D3
:09012B00D007D000D0D0D0E032A2
:03000000020026D5
:0C002600787FE4F6D8FD75810E02006DB5
:10003200020144E493A3F8E493A34003F68001F29F
:1000420008DFF48029E493A3F85407240CC8C333CF
:10005200C4540F4420C8834004F456800146F6DF9E
:10006200E4800B0102040810204080900154E47ED9
:10007200019360BCA3FF543F30E509541FFEE49393
:10008200A360010ECF54C025E060A840B8E493A35A
:10009200FAE493A3F8E493A3C8C582C8CAC583CA85
:1000A200F0A3C8C582C8CAC583CADFE9DEE780BE3D
:01015B0000A3
:00000001FF
