:0207000006E60B
:0207020006915E
:0207040006D617
:02070600049F4E
:020708000649A0
:1006BF000B213F065B4F666D7D077F6F00012C009E
:0B06F500EF1FAC0670011E4C70F622D7
:1005C3008B188A19891AE4F52CE52CB40800504DD0
:1005D3009005DAF82828730205F20205F60205FEF3
:1005E30002060202060A02060E02061602061AD2C4
:1005F300A28002C2A2D2A3D2A48022D2A28002C22B
:10060300A2C2A3D2A48016D2A28002C2A2D2A3C243
:10061300A4800AD2A28002C2A2C2A3C2A4AB18AA17
:1006230019A91A852C827583001203E72421F8E6A1
:10063300F5807F647E001206F5E4F580052CE52C39
:06064300C394084084226C
:080003000A0A0A0A00000000CD
:0606CF00022D0000C180B5
:0F06E6007F041201807F01120180E4FF020209EC
:1006910075A0FE750E01E4F50FAF0FE50EA8070872
:1006A1008002C333D8FCF4F5A0E4FBFA7D147F0289
:0E06B100120292050FE50FC3940840DD80D8B9
:1006D600D2A5B2A5E4FBFA7D017F0212029280F256
:10049F0078107C007D007BFF7A0079037E007F0857
:1004AF001203C120B3193000167FE87E031206F540
:1004BF00C20020B30F052EE52E7009052D800530E3
:1004CF00B302D200AE2DAF2E7C037DE81204148F41
:1004DF0014AE2DAF2E7C037DE81204147E007F64D2
:1004EF00CFCDCFCECCCE1204148F15AE2DAF2E7C28
:1004FF00007D641204147E007F0ACFCDCFCECCCE08
:10050F001204148F16AE2DAF2E7C007D0A12041428
:10051F008D177B007A0079101205C3E4FBFA7D0278
:08052F007F021202920204B2E5
:10064900C20220B10E7F021202097F031202097F42
:1006590001802620B01175A0FF7F011202097F03D6
:100669001202097F02801220B21275A0FF7F0112C7
:1006790002097F021202097F03120180E4FBFA7D5D
:08068900147F0212029280BAF4
:03000B00020013DD
:10000E00C2AF80FE3212001285D00B75D008AAE066
:10001E00C28CE58A24F7F58AE58C34D8F58CD28C1F
:10002E00EC243AF8E6BC040274FFC39581B41400C4
:10003E0040CE7905782F16E608700BC2AFE630E198
:10004E00034418F6D2AF08D9EDEA8BD03001012265
:10005E00D50DFCC0E0C0D0C0F0C083C082C000C0CF
:10006E0001C002C003C004C005C006C007E50C23D2
:10007E002430F87440C2AF46F6D2AFD201E50CFF81
:10008E00232430F80F0808BF05047F007830E630CF
:10009E00E4F200E50CC39F5020050C7439250CF8D2
:1000AE00E6FDA68108E6AE0CBE040274FFCDF8E8AC
:1000BE006D60E008E6C0E080F6E50CD39F4027E5D2
:1000CE000C243AF8E6AE0CBE040274FFFD18E6CD21
:1000DE00F8E5816D6006D0E0F61880F5E50C243960
:1000EE00C8F6150C80D3750D05E50C232430F87F6A
:1000FE0004C2AFE610E61E30E00310E20C7F0030C3
:05010E00E10730E304ED
:100113007F0854F4547CC6D2AF54804207C20122F4
:10012300F6D2AFD007D006D005D004D003D002D08A
:1001330001D000D082D083D0F0D0D0D0E0C2012251
:100143007839A68174046006FF0876FFDFFB7F051C
:10015300E4782FF608F608DFFA7830763090070057
:10016300740193C0E0E493C0E0750D054389017504
:0D0173008AF0758CD8D28CD2AFD2A92204AC
:10018000EFD3940440037FFF2274302F2FF8E62032
:10019000E5F4C2AFE64430F6D2AFAE0CEEC39F50EA
:1001A000210E74392EF8E6F908E618BE040274FF31
:1001B000FDED69600909E71919F7090980F31616B9
:1001C00080DAEED39F400405810581EED39F402263
:1001D00074392EF808E6F9EEB50C02A98118060666
:1001E000E6FDED6960091919E70909F71980F31EA1
:1001F00080D9EF2439F8E604F8EF2F049007009334
:09020000F608EF2F93F67F0022AF
:10020900EFD3940440037FFF22EF232430F8E63034
:10021900E5F4C2AFE6548CF6D2AFE50CB5070A7423
:10022900392FF8E6F581020089502E743A2FF8E645
:10023900BF040274FFFD18E6F974392FF8FBE6FCD8
:10024900E96C6008A805E7F61D1980F4A803A6055E
:100259001FE50CB507E37F0022743A2FF8E6FD1875
:1002690086010F74392FF8A601088604E50CB50735
:1002790002AC81ED6C60080D09A805E6F780F4E58C
:090289000CB507DE89817F00221B
:100292008FF0E4FFFEE50C23242FF8C2A930F70DFE
:1002A2007F08E6600B2DF660325030800730F10691
:1002B200EDF660277E020830F010C2AFE610E725A7
:1002C2000E30E20CD2AF7F048014C2AFE610E71505
:1002D20054EC4EF6D2AFD2A90200897F0808EF444F
:0F02E20083F4C2AF56C6D2AFD2A954804FFF22C9
:03000000020537BF
:0C053700787FE4F6D8FD75813D02057E5A
:1002F100E709F608DFFA8046E709F208DFFA803EEF
:1003010088828C83E709F0A3DFFA8032E309F608DB
:10031100DFFA8078E309F208DFFA807088828C8343
:10032100E309F0A3DFFA806489828A83E0A3F608F7
:10033100DFFA805889828A83E0A3F208DFFA804CD1
:1003410080D280FA80C680D4806980F280338010A8
:1003510080A680EA809A80A880DA80E280CA803311
:1003610089828A83ECFAE493A3C8C582C8CCC58389
:10037100CCF0A3C8C582C8CCC583CCDFE9DEE78059
:100381000D89828A83E493A3F608DFF9ECFAA9F0D8
:10039100EDFB2289828A83ECFAE0A3C8C582C8CC2E
:1003A100C583CCF0A3C8C582C8CCC583CCDFEADE47
:1003B100E880DB89828A83E493A3F208DFF980CCA9
:1003C10088F0EF60010E4E60C388F0ED2402B404A2
:1003D1000050B9F582EB2402B4040050AF23234549
:0603E1008223900341732A
:1003E700BB010CE58229F582E5833AF583E02250CB
:1003F70006E92582F8E622BBFE06E92582F8E22215
:0D040700E58229F582E5833AF583E493222E
:10041400C2D5EC30E709B2D5E4C39DFDE49CFCEE03
:1004240030E715B2D5E4C39FFFE49EFE12044AC32D
:10043400E49DFDE49CFC800312044A30D507C3E428
:060444009FFFE49EFE2272
:10054300020143E493A3F8E493A34003F68001F28A
:1005530008DFF48029E493A3F85407240CC8C333B9
:10056300C4540F4420C8834004F456800146F6DF88
:10057300E4800B01020408102040809006BFE47E53
:10058300019360BCA3FF543F30E509541FFEE4937D
:10059300A360010ECF54C025E060A840B8E493A344
:1005A300FAE493A3F8E493A3C8C582C8CAC583CA6F
:1005B300F0A3C8C582C8CAC583CADFE9DEE780BE27
:0106D5000024
:10044A00BC000BBE0029EF8DF084FFADF022E4CC96
:10045A00F875F008EF2FFFEE33FEEC33FCEE9DEC5F
:10046A00984005FCEE9DFE0FD5F0E9E4CEFD22EDA5
:10047A00F8F5F0EE8420D21CFEADF075F008EF2FEF
:10048A00FFED33FD4007985006D5F0F222C398FDE0
:05049A000FD5F0EA227D
:00000001FF
